:100000000C942A000C9447000C9447000C94470071
:100010000C9447000C9447000C9447000C94470044
:100020000C9447000C9447000C9447000C94470034
:100030000C9447000C9447000C9447000C94470024
:100040000C9447000C9447000C9447000C94470014
:100050000C94470011241FBECFE5D8E0DEBFCDBF12
:1000600010E0A0E6B0E0EEE7F6E002C005900D92E9
:10007000A837B107D9F720E0A8E7B0E001C01D928A
:10008000A038B207E1F70E941E030C943D030C94C4
:100090000000E199FECF9FBB8EBB6DBB8CB384602B
:1000A0008CBB8CB382608CBB0895E199FECF9FBB63
:1000B0008EBB8CB381608CBB8DB3089580EF84BB05
:1000C0008FEF85BB089585B38F7E85BB85B3806236
:1000D00085BB85B3806485BB85B3806885BB989BF1
:1000E0005CC0999B5CC09A9B5CC09B9B5CC08FE191
:1000F0009EE40197F1F700C0000085B3806185BBE5
:1001000085B38F7D85BB85B3806485BB85B38068EF
:1001100085BB989B4AC0999B4AC09A9B4AC09B9BAF
:100120004AC08FE19EE40197F1F700C0000085B35B
:10013000806185BB85B3806285BB85B38F7B85BBC2
:1001400085B3806885BB989B38C0999B38C09A9BC3
:1001500038C09B9B38C08FE19EE40197F1F700C047
:10016000000085B3806185BB85B3806285BB85B3A4
:10017000806485BB85B38F7785BB989B26C0999B90
:1001800026C09A9B26C09B9B26C08FE19EE40197C8
:10019000F1F700C000008FEF089587E3089588E32A
:1001A000089589E308958FE2089584E3089585E32F
:1001B000089586E308958AE2089581E3089582E32D
:1001C000089583E308958DE2089583E6089580E31A
:1001D00008958DE308958BE208959BB394609BBBD3
:1001E000882324F49BB390689BBB03C09BB39F7789
:1001F0009BBB86FF04C09BB390649BBB03C09BB3B7
:100200009F7B9BBB85FF04C09BB390629BBB03C0DD
:100210009BB39F7D9BBB84FF04C09BB390619BBB42
:1002200003C09BB39F7E9BBB9BB398609BBBEFE9D6
:10023000FFE03197F1F700C000009BB3977F9BBBB5
:10024000EFE9FFE03197F1F700C0000083FF04C041
:100250009BB390689BBB03C09BB39F779BBB82FF04
:1002600004C09BB390649BBB03C09BB39F7B9BBBB1
:1002700081FF04C09BB390629BBB03C09BB39F7D77
:100280009BBB80FF04C08BB380618BBB03C08BB36F
:100290008F7E8BBB8BB388608BBB8FE99FE0019710
:1002A000F1F700C000008BB3877F8BBBEFE9FFE065
:1002B0003197F1F700C000000895CF93DF93EC0170
:1002C00003C00E94ED00219688818111FACFDF9151
:1002D000CF9108959BB39B7F9BBB882324F49BB352
:1002E00090689BBB03C09BB39F779BBB86FF04C0FA
:1002F0009BB390649BBB03C09BB39F7B9BBB85FF61
:1003000004C09BB390629BBB03C09BB39F7D9BBB10
:1003100084FF04C09BB390619BBB03C09BB39F7ED3
:100320009BBB9BB398609BBBEFE9FFE03197F1F774
:1003300000C000009BB3977F9BBBEFE9FFE03197C4
:10034000F1F700C0000083FF04C09BB390689BBB23
:1003500003C09BB39F779BBB82FF04C09BB3906499
:100360009BBB03C09BB39F7B9BBB81FF04C09BB324
:1003700090629BBB03C09BB39F7D9BBB80FF04C06F
:100380008BB380618BBB03C08BB38F7E8BBB8BB376
:1003900088608BBB8FE99FE00197F1F700C00000F8
:1003A0008BB3877F8BBBEFE9FFE03197F1F700C09C
:1003B000000008958AB38C6F8ABB83E00E946A01B3
:1003C0008FE79EE30197F1F700C0000083E00E94F1
:1003D0006A018FE79EE30197F1F700C0000083E018
:1003E0000E946A0182E00E946A0188E20E946A011A
:1003F00081E00E946A0186E00E946A018CE00E940E
:100400006A019FEF29EF80E0915020408040E1F7A2
:1004100000C000000895CF930E946300C82F8F3F53
:10042000D9F38F3219F40E94ED0003C08AE20E94D2
:10043000ED000E9463008F3FE1F78C2FCF9108956C
:10044000CF93DF9388B3816088BB0E940B028093B7
:100450007F00803329F4809179008F5F8093790049
:10046000809179008A30B1F406C060E3CE010E9429
:100470004900219602C0C0E0D0E0C430D105ACF301
:1004800062E084E090E00E94490081E00E946A01FD
:100490001092790080917F008A3251F460E084E00C
:1004A00090E00E94490081E00E946A011092790068
:1004B000DF91CF9108951F93CF93DF9388B38E7F01
:1004C00088BB81E080937800C0E0D0E00EC00E943D
:1004D0000B02182FFE01E658FF4F8083CE010E94C9
:1004E00055001813109278002196C430D1057CF382
:1004F00080917800813081F488B3816088BB61E0AD
:1005000084E090E00E94490081E00E946A0185E653
:1005100090E00E945D0116C081E00E946A0180E7C0
:1005200090E00E945D0188B3826088BB2FEF87E86E
:1005300093E1215080409040E1F700C0000088B373
:100540008D7F88BB2FEF85EA9EE021508040904050
:10055000E1F700C0000081E00E946A01109279007A
:10056000DF91CF911F910895CF93DF9388B381607E
:1005700088BB62E084E090E00E9449000E940B0288
:1005800080937F008A3259F460E084E090E00E941A
:10059000490081E00E946A01109279004CC08F32BC
:1005A00071F408C00E940B02FE01E658FF4F8083E1
:1005B000219602C0C0E0D0E0C430D1059CF30E9477
:1005C0000B0280937F008A3259F460E084E090E06F
:1005D0000E94490081E00E946A01109279002BC0BC
:1005E0008F32D9F409C0FE01E658FF4F6081CE0179
:1005F0000E944900219602C0C0E0D0E0C430D1057D
:1006000094F361E084E090E00E94490081E00E9460
:100610006A0180E690E00E945D012FEF85EA9EE08E
:10062000215080409040E1F700C0000081E00E942E
:100630006A0110927900DF91CF9108950E94DA014A
:100640000E945E0087B3816087BB87B3826087BBEF
:1006500084E090E00E945500813019F40E9420024D
:10066000F7CF84E090E00E945500811103C00E9402
:0E0670005B02EECF0E94B402EBCFF894FFCFF6
:10067E00446F6E65005375636365737366756C00C6
:08068E004661696C656400001F
:00000001FF
